:0200000480007A
:100000007310403073100030370105F0170504708D
:100010001305450597050470938585056307B500AD
:10002000232005001105E34DB5FEEF00400501A0BA
:1000300041112AC6B2471387F7FF3AC699C7010094
:10004000B2471387F7FF3AC6FDFB410182802D8D31
:10005000718D09E9370704F08327470685072322B6
:10006000F7068280370704F08327070685072320D9
:10007000F706B70704F0054723A4E70682800111BD
:1000800006CE22CC26CA4AC84EC6B70400408D47C9
:10009000DCC41145713FDC44114798C43A85493F9F
:1000A0008547DCC01145693783A94400B70604F0D1
:1000B0009386060013060006B285C848493F930799
:1000C00010049CC02145AD379307A0059CC0214575
:1000D000853713040020D10409499C4093F7070297
:1000E00091E74A85B1377D146DF811A00544B70634
:1000F00004F0938646017D5685452285893F370465
:1001000000408D475CC411452537B70604F093863F
:1001100086021306F00F8D454844153FB70604F0DC
:100120009386C6031306F00F85454E850D37AD4700
:100130005CC41145F53DB70604F093860605130629
:10014000F00FAD4548442137B70704F083A7870671
:1001500091EB370758D0B7C7ADDE9387F7EE1CC3D6
:100160000100FDBF370758D0B7E7D0BA9387D7EA69
:040170001CC3FDB7F8
:02000004F00406
:100000005443342D4C53522D54582D454D50545972
:10001000000000005443372D4C53522D5448524594
:100020002D504F4C4C0000005443382D4C43522D62
:10003000524541444241434B000000005443392D96
:100040004945522D524541444241434B0000000076
:10005000544331302D4C43522D5041524954590094
:02000004FFFFFC
:08FFF800000004F0701004F099
:040000058000000077
:00000001FF
